:030000000208E310
:0C08E300787FE4F6D8FD758120020563E3
:10000E00FFFFFB90FC0CFC44FCACFD09FD34FD82B3
:10001E00FDC8FE06FE22FA15FB04FA67FE85343291
:10002E003234425162524232340474746262643C1D
:10003E000464625242323433313272767283818278
:10004E00828274727C046361626264728272747200
:10005E0062524232424442425262525C04646262D2
:10006E00647282727472625242324246534142321A
:10007E003C04444802323F444802323F340CFF12E3
:10008E0052525256423242322218828282828672F4
:10009E00B2727262585282827256423242322216C4
:1000AE00B2B23232221652423222C288FF52425825
:1000BE00024252423804123244425242321212C8A2
:1000CE0004524258024252423804123244425242C0
:1000DE00321232480452425802425242380412320C
:1000EE004442524232121131C80452727802728264
:1000FE0072580442424442524232121232323C0987
:10010E00727282A2929282524242425802525272AB
:10011E008484021252424804527272527402A492A1
:10012E00829254028282928272524202C4123CFF26
:10013E00C412324442525244323212141212324219
:10014E0054444FC412324442725842323414123262
:10015E003432121FFF526274747434423452564257
:10016E00343414321212C2C404526274747434429F
:10017E00345256423432121234424C5242343242CB
:10018E00321212C2C25452545252423232123242BD
:10019E0032525C5242343242321212C2C254525461
:1001AE000252524232123284727F0F74725254745F
:1001BE0082525272783432324254727F8682725236
:1001CE005472843236524252423234123232424CDD
:1001DE0086827252547284525652425272825234F3
:1001EE001212323CFF042414C454544804544434B0
:1001FE002214B2C80412C21612765246123F04B42A
:10020E00D4C41428C414123216C25478344C425238
:10021E00867276527428425246122612CF04241445
:10022E00C4565248045444342214B2C8043414C47C
:10023E0012321842427458443FFFC2C21234323254
:10024E00321212525402C212323232323452727C92
:10025E000272827282728472415152413134023280
:10026E003212343212325442323232323452727CC0
:10027E0072728272827284827242524234121232CC
:10028E00C452423412123141323C0A7282A284822A
:10029E00728272527278027282A284827282728228
:1002AE003238023242526462728282728282A28238
:1002BE008282A282727872328272787282A35142E4
:1002CE0051413CFFC2C23442425241515C04C2C24F
:1002DE003442425231414C04C2C234424252415124
:1002EE005832524C42323432424804C2C234424234
:1002FE007241515C04C2C23232424252424C04C27A
:10030E00C23442425241515832524C423232424C25
:10031E00FF54C412323452525252423234C1C2527B
:10032E00C212323411123112C27872525242324219
:10033E005211C1C4C1C1C1C112323212424244C2B1
:10034E00123242527272824151424842123C7262E1
:10035E003C72623C726221314151617181916171D5
:10036E0081913F3F54C2C242C2C434324252C2C4CF
:10037E00D2C21222381222324248FF323141525238
:10038E0042314144314152524232347111747171D1
:10039E001131343232323231414432415152527281
:1003AE008141445241313232425171747171123174
:1003BE003131524232324131345251717271717255
:1003CE007181845242323232415154517172727281
:1003DE0081A1A282725242323212445171727271F2
:1003EE008271845242323232415154517172727260
:1003FE0081A1A28272514142424432516172424401
:10040E00524131345241313452425232528171741E
:10041E0051718281717281717451413142415142E7
:10042E0031414452413134524131345242523252AE
:10043E0081717451418282A2718172715141314434
:10044E0041314151445252423134524131423134A0
:10045E00FFC2B23652423211C1B2C612C412C276B5
:10046E00A282725141324C42327482748272524173
:10047E0038324216C2725242423CC2B236524232F6
:10048E0011C1B2C612C412C276A282725141324C4E
:10049E0042327682748272534138324216C272529E
:1004AE00415112CCC2B216C2725242423C32322674
:1004BE0022244232221218025246124472825C5296
:1004CE005246427442323642588272625246323C30
:1004DE0012B23652423211C1B2C612C412C276A242
:1004EE008272514132480242526276827482725650
:1004FE004138322216C2725242423C04040404FFB6
:10050E003432343424343232243844584834323479
:10051E00342438347F343234322438342438445836
:10052E0048343234342438347F164C74786454484A
:10053E0054645844342438241412211178683F4CE2
:10054E00747864524248546458443424382424380D
:05055E004458483CFF79
:1005630075890175A882E4F508F509C20030000316
:100573000208042091047F0180027F003090047EF2
:100583000180027E00EE5FFF2092047E0180027EE6
:1005930000EE5FFF2093047E0180027E00EE5F6029
:1005A30008750F0075102CD2003091047F01800272
:1005B3007F002090047E0180027E00EE5FFF209288
:1005C300047E0180027E00EE5FFF2093047E0180A3
:1005D300027E00EE5F6008750F0075108DD200304B
:1005E30091047F0180027F003090047E0180027EAF
:1005F30000EE5FFF2092047E0180027E00EE5FFF2B
:100603002093047E0180027E00EE5F6008750F0078
:100613007510BBD2002091047F0180027F002090DF
:10062300047E0180027E00EE5FFF3092047E018033
:10063300027E00EE5FFF2093047E0180027E00EEC7
:100643005F6008750F0175103ED2002091047F0191
:1006530080027F003090047E0180027E00EE5FFF07
:100663003092047E0180027E00EE5FFF2093047EC1
:100673000180027E00EE5F6008750F01751063D282
:10068300003091047F0180027F002090047E01806E
:10069300027E00EE5FFF3092047E0180027E00EE58
:1006A3005FFF2093047E0180027E00EE5F60087589
:1006B3000F017510F3D2003091047F0180027F0097
:1006C3003090047E0180027E00EE5FFF3092047E54
:1006D3000180027E00EE5FFF2093047E0180027E94
:1006E30000EE5F6008750F02751048D20020910478
:1006F3007F0180027F002090047E0180027E00EE55
:100703005FFF2092047E0180027E00EE5FFF309344
:10071300047E0180027E00EE5F6008750F02751093
:10072300D2D2002091047F0180027F003090047EAA
:100733000180027E00EE5FFF2092047E0180027E34
:1007430000EE5FFF3093047E0180027E00EE5F6067
:1007530008750F0375101FD2003091047F018002CA
:100763007F002090047E0180027E00EE5FFF2092D6
:10077300047E0180027E00EE5FFF3093047E0180E1
:10078300027E00EE5F6008750F03751089D200309A
:1007930091047F0180027F003090047E0180027EFD
:1007A30000EE5FFF2092047E0180027E00EE5FFF79
:1007B3003093047E0180027E00EE5F6008750F04B3
:1007C30075105FD2002091047F0180027F0020908A
:1007D300047E0180027E00EE5FFF3092047E018082
:1007E300027E00EE5FFF3093047E0180027E00EE06
:1007F3005F7003020570750F0575100ED2000205B8
:1008030070E4F50A1208D4050AE50AC3940540F416
:1008130085900C85B00DE5102509F582E50F3508A7
:10082300F583E493FFF47003020569EF540FF50BAE
:10083300EFC4540FF50EE50C65906003020569E5FE
:10084300B0540FFFE50D540F6F6003020569E50E09
:1008530025E0240EF582E43400F583E493FFF58C60
:10086300E50E25E0240FF582E43400F583E493FEDE
:10087300F58AD28CEFB4FF06EEB4FF02C28C850B6F
:100883000AE50AD3940040071208D4150A80F2C27D
:0C0893008C0509E509700205080208192F
:03000B0002089F49
:10089F00C0E0C083C082C0D0E50E25E0240EF582F3
:1008AF00E43400F583E493F58CE50E25E0240FF591
:1008BF0082E43400F583E493F58AB2B7D0D0D082C6
:0508CF00D083D0E032EF
:0E08D4007F107E27EF1FAC0670011E4C70F6E1
:0108E20022F3
:00000001FF
